:020000040800F2
:1000000028040020D5000008410200083F02000833
:1000100000000000000000000000000000000000E0
:10002000000000000000000000000000E5040008DF
:1000300000000000000000009502000871050008A3
:10004000E7000008E7000008E7000008E7000008F4
:10005000E7000008E7000008E7000008E7000008E4
:10006000E7000008E7000008E7000008E7000008D4
:10007000E7000008E7000008E7000008E7000008C4
:10008000E7000008E700000800000000E7000008A3
:10009000E7000008E7000008E7000008E7000008A4
:1000A000E7000008E7000008E7000008E700000894
:1000B000E700000800000000E70000080000000062
:1000C0000348854600F02AF8004800470D0600085E
:1000D000280400200448804704480047FEE7FEE764
:1000E000FEE7FEE7FEE7FEE779050008C10000082D
:1000F00030B50B46014600202022012409E00D46C0
:10010000D5409D4205D31D469540491B2546954047
:1001100040191546521E002DF1DC30BD064C01255C
:10012000064E05E0E36807CC2B430C3C984710349F
:10013000B442F7D3FFF7C8FFE00600080007000845
:1001400001B503480099416041680029FCD108BD10
:100150000000002010B5837918490268002B26D0D2
:100160000B6893430B604A6803689A434A600279BC
:10017000521813680468234313608A6803689A431B
:100180008A60CA6803689A43CA604279102A05D017
:1001900051180A68006802430A6010BD8A68036843
:1001A0001A438A60CA6800680243CA6010BD0079B9
:1001B000401801689143016010BD00000004014037
:1001C000F0B50022012423460D6893401D409D4256
:1001D0002AD10D79012D01D0022D12D18768550049
:1001E0000326AE40B74387604E79AE4085682E4304
:1001F000866085889D43858085888B7993401D43E3
:100200008580066855000323AB409E4306600E7947
:100210000768AE403E430660C6689E43C660CB7921
:10022000AB40C5682B43C360521C102ACBD3F0BD32
:100230000246128A00200A4200D001207047FEE7E1
:100240007047000030B5837801210278002B15D06B
:1002500094080E4BA400E41823689207D50EFF22E1
:10026000AA40934342789207120EAA401A43226092
:100270000078C006C00E8140054804E0D006C00EDC
:10028000814003488030016030BD000000E400E0A0
:1002900000E100E070470000044A0029516901D0E4
:1002A000014300E0814351617047000000100240AB
:1002B000044A0029916901D0014300E08143916122
:1002C0007047000000100240F8B5334D04466868DE
:1002D0000C21324E084003D0042801D0082801D058
:1002E000266012E0696868680122890212040F0F13
:1002F0001040BF1C00281CD0E86A0107090F3046D7
:10030000491CFFF7F5FE784320606868244B00061F
:10031000000F1A5C20680146D14061606A6852058E
:10032000520F9A5CD140A1602A6BD20505D41D4AB8
:1003300009E01D4847432760E7E76A68520401D493
:100340004A0800E08A08E2602A6B5306174A03D481
:10035000164B1233236100E022612B6BDB0601D4C4
:10036000666100E060612B6B9B070FD0296B8907EA
:10037000890F01290CD0286B8007800F022809D033
:10038000286BC043800700D1A661F8BDA161F8BD0C
:10039000A061F8BDA261F8BD0010024000127A0011
:1003A00014000020809FD50000093D00008000005F
:1003B0007CB5044685000B4801214059FFF76CFFCE
:1003C000084960000A39085A0090012069460871FE
:1003D00000208871C8710320487103484059FFF715
:1003E000EFFE7CBDD80600080C000020034A410047
:1003F000515A034A8000105801857047CE06000804
:100400000C000020034A4100515A034A8000105852
:1004100081617047CE0600080C000020044982006C
:1004200089588A8A034B4000185A42408A82704792
:100430000C000020CE06000810B5044A4100515AB5
:10044000034A80001058FFF7F3FE10BDC4060008F1
:1004500008000020F3B505468700204885B0C05944
:100460000121FFF719FF01210846FFF721FF0026B0
:1004700068460673C67319486C001038005B02901A
:10048000174802A9C059FFF79BFE0698012823D1FF
:1004900012480A38015D801E005D00F025F80F4803
:1004A0000E38005B009068460671002D01D00820D0
:1004B00000E00C2069464871012568468571FFF708
:1004C00049FE06480838015D6846017403214174FD
:1004D000857404A8FFF7B6FE07B0F0BDD406000887
:1004E00008000020704700008A07130F10B50F2284
:1004F0009A408C080549A40061188C6894438C606C
:100500008A68984002438A6010BD000000000140E4
:1005100008B5002000901449112008601348416874
:1005200041604168416041683F221204914341604B
:1005300041680522D204114341600168012212067C
:100540001143016001688901FCD54168890889006F
:100550004160416802221143416041680907890FE7
:100560000229FAD108BD000000200240001002401C
:1005700010B500F031F810BD10B514480168012223
:10058000114301604168124A114041600168114AFB
:1005900011400160016801229204914301604168A9
:1005A0003F22120491434160C16A09090901C162F5
:1005B000016BFF22543291430163416B49084900AA
:1005C000416300218160FFF7A3FF10BD00100240CE
:1005D0000CB8FFF8FFFFF6FE03484168002902D07F
:1005E0004168491E416070470000002002E008C8D1
:1005F000121F08C1002AFAD170477047002001E09D
:1006000001C1121F002AFBD17047000088B00020F2
:10061000FFF7CEFE0120FFF7CBFE00210846FFF7D3
:1006200019FF6846FFF750FE7D26F6003146019817
:10063000FFF75EFD1F49002588420DD801401E4886
:10064000491E41611D490722CB691B021B0A440454
:100650002343CB6185610261194C01202070002089
:10066000FFF7EAFE01280DD1FFF7CCFE3046FFF779
:1006700067FD0120FFF7BAFE2078401CC0B2207051
:10068000032805D02078022807D001280AD000E0EE
:1006900025700020FFF7AAFEE1E70020FFF7BEFE6D
:1006A000642003E00020FFF7B9FEC820FFF748FDF3
:1006B000D5E70000FFFFFF0000E000E004ED00E0F0
:1006C0000000002001000100000000000500000201
:1006D0000001000000000200000008000000080007
:1006E000000700080000002024000000EC050008BE
:1006F000240700082400002004040000FC05000872
:100700000000000000000000000000480008004851
:100710000008004800000000010203040102030475
:0407200006070809B7
:04000005080000C12E
:00000001FF
